:020000040800F2
:10000000E0080020690100088D0700086904000865
:100010008907000825020008050C00080000000000
:10002000000000000000000000000000F1080008CF
:100030002902000800000000B90700083F09000875
:100040008301000883010008830100088301000880
:100050008301000883010008830100088301000870
:100060008301000883010008830100088301000860
:100070008301000883010008830100088301000850
:1000800083010008830100080000000083010008CC
:1000900083010008610B0008830100088301000848
:1000A0008301000883010008830100088301000820
:1000B0008301000800000000830100080000000028
:1000C0008301000800000000830100080000000018
:1000D0000000000000000000000000000000000020
:1000E0000000000000000000830100080000000084
:1000F0000000000000000000000000000000000000
:100100008301000800000000000000000000000063
:1001100000000000000000000000000000000000DF
:1001200000000000000000000000000000000000CF
:1001300000000000000000000000000000000000BF
:100140000000000000000000000000008301000823
:10015000DFF810D000F042F8004800478B0F00088D
:10016000AFF30080E00800200648804706480047BB
:10017000FEE7FEE7FEE7FEE7FEE7FEE7FEE7FEE757
:10018000FEE7FEE74909000851010008D2B201E08C
:1001900000F8012B491EFBD270470022F6E710B58C
:1001A00013460A4604461946FFF7F0FF204610BDE5
:1001B00030B50B46014600202022012409E021FA37
:1001C00002F59D4205D303FA02F5491B04FA02F534
:1001D0002844151EA2F10102F1DC30BD064C074D8A
:1001E00006E0E06840F0010394E807009847103407
:1001F000AC42F6D3FFF7B0FF3016000850160008E7
:1002000010B500F0A9FC00F02DFB00F0BFFC00F0E1
:10021000A9F910BD00F036F900BF00F05BF800F05E
:1002200005FAFAE700BFFEE7704700B50246104640
:1002300000F0ECFD00BD00000148006870470000C0
:100240001400002010B5044624B1012C13D0022C58
:1002500039D125E002211E4800F02AFE48B91420B9
:10026000FFF7E3FF02211A4800F022FE08B9002040
:1002700010BD0120FCE74FF480614FF0904000F08A
:1002800017FE58B91420FFF7D0FF4FF480614FF0EC
:10029000904000F00DFE08B90020E9E70120E7E7F3
:1002A00004214FF0904000F003FE50B96420FFF7A6
:1002B000BCFF04214FF0904000F0FAFD08B9002087
:1002C000D6E70120D4E700BF00BF0020D0E7000040
:1002D0000014004810B500240020FFF7B3FF0446C7
:1002E0000CB1012000E00020284908700846007881
:1002F000497888420ED025480078012803D124A0EF
:1003000000F0BAFC02E02AA000F0B6FC1F4800781A
:100310001E4948700120FFF795FF04460CB10120EB
:1003200000E000201949887008468078C978884222
:100330000DD01648807818B925A000F09DFC02E089
:100340002DA000F099FC114880781049C870022057
:10035000FFF778FF04460CB1012000E000200B49B4
:10036000087108460079497988420DD0074800791C
:1003700018B92BA000F080FC02E032A000F07CFC59
:10038000024800790149487110BD000004000020B6
:10039000446F6F72205374617465204368616E67A7
:1003A000652C204E6F77204F70656E2E0D0A000071
:1003B000446F6F72205374617465204368616E6787
:1003C000652C204E6F7720436C6F73652E0D0A00ED
:1003D000546F6E677565205374617465204368615E
:1003E0006E67652C204E6F7720496E73657274209E
:1003F000205B0D0A00000000546F6E677565205386
:1004000074617465204368616E67652C204E6F7758
:1004100020457874656E64203C5B0D0A0000000086
:100420004F70656E205369676E616C204368616E22
:1004300067652C204E6F7720446F204F70656E2EBD
:100440000D0A00004F70656E205369676E616C2065
:100450004368616E67652C204E6F7720446F2043A0
:100460006C6F73652E0D0A0000BFFEE710B500210A
:10047000084600F03EFA0121084600F03AFA00F082
:1004800015F810BD10B5002400BF03E0FFF722FFF0
:10049000601CC4B2052CF9DB03480078012801D1A7
:1004A00000F054F810BD00000400002010B5002436
:1004B00054201149087001241AE00F4890F90020D7
:1004C00000214FF0804000F0AEFF3220FFF7ADFE7C
:1004D00009480078A0EBC40040B2074908700846FC
:1004E00090F90000002801DA00200870601CC4B2F6
:1004F0000A2CE2DD10BD00001800002010B5002419
:1005000000201149087001241AE00F4890F90020DA
:1005100000214FF0804000F086FF3220FFF785FE7B
:100520000948007800EBC40040B20749087008464B
:1005300090F90000502801DD50200870601CC4B202
:100540000A2CE2DD10BD00001800002010B50121CA
:10055000002000F0CEF90021012000F0CAF9FFF7D9
:10056000CDFF10BD00B589B040F2115000F080FD04
:100570000123002202214FF0904000F0A1FC012352
:10058000032200214FF0904000F0C1FC0122022123
:100590004FF0904000F059FC4FF4E06000F068FD2F
:1005A0004FF0804000F052FF2920ADF804000020F9
:1005B000ADF80600ADF808007C2003900020ADF8EF
:1005C0000A008DF8100001A94FF0804000F0A6FF4E
:1005D0000020ADF81A00012005900020ADF81C00A5
:1005E0000420ADF818008001ADF81E000020ADF821
:1005F000200005AA00214FF0804000F0E3FD00221A
:1006000011464FF0804000F00EFF602200214FF0B5
:10061000804000F0DBFE0121880700F0E8FF4FF08A
:10062000804000F075FF09B000BD000010B53848EB
:10063000007948B936488078012805D1FFF786FF50
:10064000FFF7FAFD3349486033480078D0B93348A2
:100650000078B8B92E488078A0B92D48007888B9BC
:10066000FFF7EAFD2B4908600A46516810680A2224
:1006700000F0C0FA30B1FFF7F9FE0A229D2128A050
:1006800000F0FAFA2248807828B921480078012839
:1006900001D1214908702048007801280FD11C4859
:1006A000807860B91A48007848B9FFF7C5FD194944
:1006B0004860002018490870012018490870174840
:1006C0000078012822D112480078012809D1104869
:1006D000807830B91AA000F0CFFA00200F490870D6
:1006E00014E0FFF7A9FD0B4908600A46516810683D
:1006F000032200F07FFA48B10322BA211AA000F0C9
:10070000BBFAFFF7B3FE00200449087010BD0000DB
:10071000040000200C0000200A0000200B00002034
:100720004C6F636B436C6F73652D3E313A256420CB
:1007300064656C61792D74696D653A25640D0A00F4
:100740004265666F7265204C6F636B6564204F7005
:10075000656E2074686520646F6F722061676169DF
:100760006E2E0D0A000000004C6F636B436C6F73BC
:10077000652D3E323A25642064656C61792D74697B
:100780006D653A25640D0A0000BFFEE77047000062
:1007900010B5002807DA0A07140E054A00F00F0307
:1007A0001B1FD45403E00A07130E024A135410BD52
:1007B00018ED00E000E400E07047000010B540F2E2
:1007C000165000F055FC0223012200210B4800F0D6
:1007D00077FB40F2115000F04BFC4FF48063012294
:1007E00000214FF0904000F06BFB04230122002118
:1007F0004FF0904000F064FB10BD00000014004872
:1008000010B540F2115000F033FC40F202230022F8
:1008100001214FF0904000F053FB40F202230322ED
:1008200000214FF0904000F072FB40F202214FF0A7
:10083000904000F039FB40F2125000F019FC022306
:1008400000220121064800F03BFB02230322002185
:10085000034800F05CFB0221014800F025FB10BDBD
:100860000004004810B5FFF7A9FFFFF7C9FF10BD4E
:100870002DE9F04707468846DFF870A000BF9AF8D8
:10088000000008B900F0C0F900BFEFF3118108467D
:10089000202181F3118800BF00BF07EB47021349F5
:1008A000183101EBC204E1684D1CA168A94200D1D6
:1008B00000256169022903D100BF2169A942FCD04A
:1008C0002169A94208D0E268616801EB020989F850
:1008D0000080E560012600E00026C1B281F31188A6
:1008E00000BF00BF3046BDE8F087000024000020B4
:1008F000704770B505460C4615B1012D1CD10CE0B2
:100900002CB102214FF0904000F0D0FA04E0022117
:100910004FF0904000F0C8FA0FE034B14FF400718E
:100920004FF0904000F0C2FA05E04FF400714FF034
:10093000904000F0B9FA00E000BF00BF70BD10B5F4
:1009400000F06EFA10BD000008B57948C06900F0EB
:100950000600062871D07648C069C0F340300028F0
:100960006BD0744872494860734848607148886029
:10097000714888600846006940F020000861084618
:10098000006940F04000086100BF6948C06800F09D
:1009900001000028F9D16648006920F02000644970
:1009A00008610846006940F0100008610846C06907
:1009B00000F0060018B9A5206049088008E05C48EE
:1009C000C06900F00600022802D1BB205B49088004
:1009D0005748C069000A00F0DF005849891C0880A8
:1009E0005348C069C0F30740891C08805048C0695B
:1009F000000E891C08804E48006AC0B2891C08801D
:100A00004B48006AC0F30720891C088000BF484893
:100A1000C06800F001000028F9D14548006920F0C5
:100A20001000434908610846006920F4007008611D
:100A30000846006940F0800008614148006840F4C1
:100A400070003F4908603F48006840F001003D49A0
:100A5000086000BF3B48006800F002000028F9D0A1
:100A600000BF3848406840F08000364948600020A8
:100A7000009002E00098401C009000985028F9D3A4
:100A80003048406840F090002E49486000200090B7
:100A900002E00098401C009000985028F9D300BF55
:100AA0002848406820F0030026494860084600684E
:100AB0002549084023490860084640682349084002
:100AC0002049486008464068214908401D4948605F
:100AD0000846C06A1F4908401A49C8620846006BA8
:100AE00040F203118843174908630846006B20F45D
:100AF000803008630846006B20F000400863084619
:100B0000406B20F0010048630E48C030006820F4BC
:100B10008030C1F8C000002088600A49CC310860EC
:100B200000F01EFB00214FF0006000F095FA08BDB8
:100B30000020024023016745AB89EFCD00F8FF1F7D
:100B400088ED00E000100240FFFFF2FE0C00FF08FD
:100B5000FFFFC277F0FFFF3F10B500F005FB10BDAF
:100B600010B50121074800F036FD012808D10648DC
:100B70000068401C044908600121024800F028FD7B
:100B800010BD000000440140140000201FB540F2D9
:100B9000116000F06DFA164800F058FC684600F04D
:100BA00032FD42F2CF00ADF800000020ADF80200A7
:100BB000ADF8040042F20F7002900020ADF806007C
:100BC00069460B4800F0AAFC0121094800F000FD2D
:100BD0000121074800F0F8FC054800F0EDFA044850
:100BE00000F096FC02220021152000F0D5F91FBD6F
:100BF000004401400346581A904201D90120704731
:100C00000020FCE700BFFEE770B5144CA821204689
:100C1000FFF7C3FA03202061606111A0A0611349AE
:100C2000E1614FF4806121620021A1626162E162B1
:100C30000BA020660E4961661021A1660021216784
:100C4000E1666167002505E0C5F10F000949085C10
:100C500060556D1C102DF7D370BD000024000020DE
:100C60005465726D696E616C00000000CC0000205C
:100C7000CC0400201C1600080FB4054B10B503A9C6
:100C8000044A029800F018F810BC5DF814FB00004C
:100C9000390E00082000002002E008C8121F08C119
:100CA000002AFAD170477047002001E001C1121FED
:100CB000002AFBD1704700002DE9FF4F89B09B4609
:100CC0000446002506E025280BD05A460B9990478C
:100CD000641C6D1C20780028F5D10DB02846BDE8B5
:100CE000F08F0027B8460122474900E0074314F877
:100CF000013F203B02FA03F00842F7D120782E286A
:100D000019D114F8010F47F004072A280ED06FF00C
:100D10002F022078A0F1300109290CD808EB8801B6
:100D200002EB410100EB0108641CF2E70A98641C25
:100D300050F8048B0A9020780028CED0642808D080
:100D4000692806D075281ED05A460B9990476D1C0D
:100D500058E00A994FF00A0901C90A91002802DAFD
:100D600040422D2102E0390504D52B218DF82010B9
:100D7000012103E0F90704D02021F7E78A4608AEF5
:100D80000DE00021FAE70A994FF00A0901C90A911A
:100D9000F7E74946FFF70CFA303106F8011D002845
:100DA000F7D1ADEB060000F12009780701D44FF030
:100DB0000108C84502DDA8EB090000E000208046DC
:100DC000002706E008A85A46C05D0B9990476D1CA5
:100DD0007F1C5745F6DB04E030205A460B999047BC
:100DE0006D1CB8F10001A8F10108F5DC05E016F86A
:100DF000010B5A460B9990476D1CB9F10001A9F1FE
:100E00000109F4DC641C65E7092801000349086056
:100E100000BF024909680029FBD17047000000208B
:100E20000448006820B103480068401E014908607A
:100E3000704700000000002070B504460D46E1B286
:100E40000020FFF715FD204670BDF0B503461C6A73
:100E50005D6A00200DE00126864016403EB1870005
:100E60000F26BE40B443860001FA06F63443461C02
:100E7000B0B20828EFD3082011E0012686401640C2
:100E80005EB1A0F10806B7000F26BE40B543A0F141
:100E90000806B60001FA06F63543461CB0B2102823
:100EA000EBD31C625D62F0BD816270478161704767
:100EB00002461069084008B1012070470020FCE795
:100EC000F0B504460D4616462168E268002019E098
:100ED000012787401F409FB14FEA400C032707FAC4
:100EE0000CF7B943470005FA07F739434FEA400CBE
:100EF000032707FA0CF7BA43470006FA07F73A4305
:100F0000471CB8B21028E3D32160E260F0BDF0B511
:100F100004460E46012E03D167681F43676002E056
:100F200067689F436760A1684FF6FF77BA4216D1A2
:100F3000E56B00200EE0012787401F4047B14FEAD4
:100F4000400C032707FA0CF73943012787403D433C
:100F5000471CB8B21028EED3A160E56314E000206E
:100F60000FE0012787401F404FB14FEA400C032795
:100F700007FA0CF7B943470002FA07F73943471C51
:100F8000B8B21028EDD3A160F0BDFFF739F901E048
:100F9000FFF740F9FCE700002DE9F04103460D465C
:100FA000164600240027A0462448006800F4E060AC
:100FB000B0F5A06F15D006DCB0F5407F18D0B0F5C5
:100FC000806F19D110E0B0F5C06F06D0B0F5E06FBA
:100FD00012D100274FF0040815E001274FF0030855
:100FE00011E00227B8460EE003274FF001080AE09F
:100FF00004274FF0000806E04FF4A06000F022F84C
:101000000227B84600BF00BFC7F1040005FA00F48C
:10101000C8F104010F20C8403040044324010848AF
:10102000C45403F01F01012088405911890001F1C7
:10103000E021C1F80001BDE8F08100000CED00E006
:1010400000E400E002490143024A116070470000D9
:101050000000FA050CED00E0034A0A400243034B8E
:101060001A60BFF34F8F704780FFFF1F08ED00E04D
:10107000064A02EB9011096800F01F0301229A4012
:101080001143024B03EB90121160704700100240B5
:10109000064A02EB9011096800F01F0301229A40F2
:1010A0009143024B03EB9012116070470010024015
:1010B000064A02EB9011096800F01F0301229A40D2
:1010C0001143024B03EB9012116070470010024075
:1010D000204840681F4948600846406840F4005076
:1010E00048600846406840F48060486008464068B0
:1010F00019490840174948600846C06A174908401E
:101100001449C8620846406840F0016048600846DB
:10111000C06AC8620846006840F08070086000BF7E
:101120000C48006800F000700028F9D009484068B9
:1011300020F00300074948600846406840F002007C
:10114000486000BF0348406800F008000028F9D05C
:101150007047000000100240FFFFC0F7F0FFFF3FA4
:1011600010B5FFF7B5FF10BD10B5124800684FF479
:101170007A71B0FBF1F4601EB0F1807F01D30120E1
:101180000FE0601E4FF0E02148610F214FF0FF306B
:10119000FFF7FEFA00204FF0E02188610720086188
:1011A000002008B100BFFEE70021481EFFF7F0FA5B
:1011B00010BD00001C000020016841F080010160AA
:1011C0007047000010B531B1012945D002297DD00A
:1011D00003297CD1CBE0036A23F001030362836916
:1011E00023F003038361036A146823430362036AE1
:1011F00023F002030362036AD488234303626F4B24
:10120000984208D06E4B984205D06E4B984202D05F
:101210006D4B98421FD1036A23F004030362036AF3
:10122000948823430362036A23F008030362036A7A
:10123000148923430362436823F480734360436843
:10124000548923434360436823F400734360436835
:10125000948923434360AEE0036A23F010030362E2
:10126000836923F440738361036A146843EA0413B7
:101270000362036A23F020030362036AD48843EA0B
:10128000041303624D4B984226D1036A23F04003B6
:101290000362036A948843EA04130362036A23F037
:1012A00080030362036A148943EA041303624368F8
:1012B00023F4806343604368548943EA84034360B2
:1012C000436823F400634360436801E011E071E088
:1012D000948943EA84034360394B984208D14368B8
:1012E00023F4806343604368548943EA8403436082
:1012F00061E0036A23F480730362C36923F003038C
:10130000C361036A146843EA04230362036A23F493
:1013100000730362036AD48843EA04230362274B01
:10132000984223D1036A23F480630362036A94889A
:1013300043EA04230362036A23F400630362036A3B
:10134000148943EA04230362436823F4805343600F
:101350004368548943EA04134360436823F4005309
:1013600043604368948943EA0413436023E0036ABB
:1013700023F480530362C36923F44073C361036A97
:10138000146843EA04330362036A23F400530362DC
:10139000036AD48843EA04330362084B984208D1B5
:1013A000436823F4804343604368548943EA8413C9
:1013B000436000E000BF00BF10BD0000002C0140F2
:1013C00000400140004401400048014031B1012982
:1013D0000CD0022913D0032922D118E0836923F00D
:1013E000700383618369134383611AE0836923F483
:1013F000E0438361836943EA0223836111E0C369A7
:1014000023F07003C361C3691343C36109E0C36977
:1014100023F4E043C361C36943EA0223C36100E0EC
:1014200000BF00BF704731B1012906D0022906D0A4
:10143000032908D105E0426306E0826304E0C26349
:1014400002E0026400E000BF00BF704710B5044630
:101450002D49601A8C4214D009DCB4F1804F19D0A8
:101460002A482044F8B1B0F5E05F49D124E0B0F556
:10147000A05F2AD0B0F5C05F30D0B0F5E05F3FD1BB
:1014800035E040F20B30FFF713FE40F20B30FFF770
:10149000FFFD36E04FF48060FFF70AFE4FF48060F6
:1014A000FFF7F6FD2DE040F20140FFF701FE40F2AC
:1014B0000140FFF7EDFD24E04FF48160FFF7F8FDF8
:1014C0004FF48160FFF7E4FD1BE04FF44470FFF739
:1014D000EFFD4FF44470FFF7DBFD12E040F21130F6
:1014E000FFF7E6FD40F21130FFF7D2FD09E040F2D0
:1014F0001230FFF7DDFD40F21230FFF7C9FD00E0CA
:1015000000BF00BF10BD0000002C014000FCFFBF69
:10151000016841F001010160704700000A888262A1
:10152000234A904205D0B0F1804F02D0214A904228
:101530000BD1026822F07002026002684B881A43E5
:10154000026002688B881A4302608A68C262184A85
:10155000904211D0B0F1804F0ED0164A90420BD07D
:10156000154A904208D0154A904205D0144A90423C
:1015700002D0144A904207D1026822F440720260FD
:101580000268CB881A430260094A904208D00B4A8D
:10159000904205D00A4A904202D00A4A904201D1B4
:1015A0000A7B0263426942F0010242617047000017
:1015B000002C014000040040002000400040014099
:1015C0000044014000480140C2680A43C2607047BD
:1015D000CA43026170470246D06800EA01031069FD
:1015E000084010B10BB1012070470020FCE7012931
:1015F00004D1426C42F40042426403E0426C22F4A3
:1016000000424264704700210180418081804FF692
:10161000FF7181600021C1800173704700000000EC
:1016200000005454522052454747455300000000E3
:10163000501600080000002024000000980C00084C
:101640007416000824000020BC080000A80C000844
:101650000000000000000101010100000000000086
:1016600000000000000000000000000000BD0105B7
:041670000000000076
:04000005080001519D
:00000001FF
