:020000040800F2
:100000000804002069010008BF010008B7010008CA
:10001000BB010008B1010008050400080000000051
:10002000000000000000000000000000EB010008DC
:10003000B501000800000000E9010008ED0100081A
:100040008301000883010008830100088301000880
:100050008301000883010008830100088301000870
:100060008301000883010008830100088301000860
:100070008301000883010008830100088301000850
:1000800083010008830100080000000083010008CC
:100090008301000883010008830100088301000830
:1000A0008301000883010008830100088301000820
:1000B0008301000800000000830100080000000028
:1000C0008301000800000000830100080000000018
:1000D0000000000000000000000000000000000020
:1000E0000000000000000000830100080000000084
:1000F0000000000000000000000000000000000000
:100100008301000800000000000000000000000063
:1001100000000000000000000000000000000000DF
:1001200000000000000000000000000000000000CF
:1001300000000000000000000000000000000000BF
:100140000000000000000000000000008301000823
:10015000DFF810D000F01AF8004800472D0500081D
:10016000AFF3008008040020064880470648004797
:10017000FEE7FEE7FEE7FEE7FEE7FEE7FEE7FEE757
:10018000FEE7FEE7F501000851010008064C074DA7
:1001900006E0E06840F0010394E807009847103457
:1001A000AC42F6D3FFF7D8FFD8060008F8060008DF
:1001B00000BFFEE7704700BFFEE700BFFEE77047E5
:1001C00010B5002807DA0A07140E054A00F00F03DD
:1001D0001B1FD45403E00A07130E024A135410BD28
:1001E00018ED00E000E400E07047704710B500F043
:1001F00025F910BD08B57948C06900F00600062849
:1002000071D07648C069C0F3403000286BD0744884
:1002100072494860734848607148886071488860D6
:100220000846006940F0200008610846006940F077
:100230004000086100BF6948C06800F00100002864
:10024000F9D16648006920F0200064490861084639
:10025000006940F0100008610846C06900F006001F
:1002600018B9A5206049088008E05C48C06900F022
:100270000600022802D1BB205B4908805748C069AC
:10028000000A00F0DF005849891C08805348C06903
:10029000C0F30740891C08805048C069000E891CC3
:1002A00008804E48006AC0B2891C08804B48006A2A
:1002B000C0F30720891C088000BF4848C06800F0D0
:1002C00001000028F9D14548006920F01000434999
:1002D00008610846006920F400700861084600695A
:1002E00040F0800008614148006840F470003F49D8
:1002F00008603F48006840F001003D49086000BFC9
:100300003B48006800F002000028F9D000BF3848E0
:10031000406840F08000364948600020009002E0CC
:100320000098401C009000985028F9D3304840684D
:1003300040F090002E4948600020009002E00098B4
:10034000401C009000985028F9D300BF284840680E
:1003500020F0030026494860084600682549084007
:1003600023490860084640682349084020494860FE
:1003700008464068214908401D4948600846C06A4F
:100380001F4908401A49C8620846006B40F2031131
:100390008843174908630846006B20F480300863DF
:1003A0000846006B20F0004008630846406B20F0D0
:1003B000010048630E48C030006820F48030C1F866
:1003C000C000002088600A49CC31086000F058F96C
:1003D00000214FF0006000F0CFF808BD002002407F
:1003E00023016745AB89EFCD00F8FF1F88ED00E0E2
:1003F00000100240FFFFF2FE0C00FF08FFFFC27773
:10040000F0FFFF3F00BFFEE702E008C8121F08C16F
:10041000002AFAD170477047002001E001C1121F85
:10042000002AFBD1704700000349086000BF024961
:1004300009680029FBD170470000002004480068CB
:1004400020B103480068401E014908607047000061
:1004500000000020816270470AB1816100E0816282
:100460007047F0B504460D4616462168E268002044
:1004700019E0012787401F409FB14FEA400C032736
:1004800007FA0CF7B943470005FA07F739434FEA73
:10049000400C032707FA0CF7BA43470006FA07F7A0
:1004A0003A43471CB8B21028E3D32160E260F0BDA4
:1004B000F0B504460E46012E03D167681F436760FE
:1004C00002E067689F436760A1684FF6FF77BA4212
:1004D00016D1E56B00200EE0012787401F4047B191
:1004E0004FEA400C032707FA0CF7394301278740EE
:1004F0003D43471CB8B21028EED3A160E56314E079
:1005000000200FE0012787401F404FB14FEA400C09
:10051000032707FA0CF7B943470002FA07F73943F4
:10052000471CB8B21028EDD3A160F0BD00F0ACF8C4
:1005300040F2115000F02CF80223002201214FF06C
:100540009040FFF78EFF0223032200214FF09040DE
:10055000FFF7AEFF02214FF09040FFF77BFF09E06D
:10056000012202214FF09040FFF776FF4FF47A709E
:10057000FFF75AFFF4E70000034A0A400243034B27
:100580001A60BFF34F8F704780FFFF1F08ED00E038
:10059000064A02EB9011096800F01F0301229A40FD
:1005A0001143024B03EB90121160704700100240A0
:1005B000002000212E4A126842F480322C4B1A602F
:1005C00000BF401C2A4A126802F4003111B9B0F58C
:1005D000006FF6D1264A126802F4003202B9704761
:1005E000234A5268224B5A601A46526842F400521B
:1005F0005A601A46526842F480625A601A4652683B
:100600001C4B1A401A4B5A601A46D26A1A4B1A40AF
:10061000174BDA621A465268184B1A43144B5A6049
:100620001A46D26A42F00102DA621A46D26ADA62E5
:100630001A46126842F080721A6000BF0C4A1268B3
:1006400002F00072002AF9D0094A526822F003022F
:10065000074B5A601A46526842F002025A6000BFC5
:10066000034A526802F00802002AF9D000BFB6E738
:1006700000100240FFFFC0F7F0FFFF3F000011082D
:1006800010B5FFF795FF10BD10B5124800684FF484
:100690007A71B0FBF1F4601EB0F1807F01D30120CC
:1006A0000FE0601E4FF0E02148610F214FF0FF3056
:1006B000FFF786FD00204FF0E021886107200861E8
:1006C000002008B100BFFEE70021481EFFF778FDBB
:1006D00010BD000004000020F80600080000002003
:1006E00008000000080400080007000808000020B7
:1006F00000040000180400080000000000BD01050F
:04000005080001519D
:00000001FF
