:020000040800F2
:10000000C808002069010008010300083302000845
:10001000FD0200082D02000809070008000000008A
:10002000000000000000000000000000390400088B
:1000300031020008000000002D0300083B04000806
:100040008301000883010008830100088301000880
:100050008301000883010008830100088301000870
:100060008301000883010008830100088301000860
:100070008301000883010008830100088301000850
:1000800083010008830100080000000083010008CC
:10009000830100085D060008830100088301000851
:1000A0008301000883010008830100088301000820
:1000B0008301000800000000830100080000000028
:1000C0008301000800000000830100080000000018
:1000D0000000000000000000000000000000000020
:1000E0000000000000000000830100080000000084
:1000F0000000000000000000000000000000000000
:100100008301000800000000000000000000000063
:1001100000000000000000000000000000000000DF
:1001200000000000000000000000000000000000CF
:1001300000000000000000000000000000000000BF
:100140000000000000000000000000008301000823
:10015000DFF810D000F042F800480047670A0008B6
:10016000AFF30080C80800200648804706480047D3
:10017000FEE7FEE7FEE7FEE7FEE7FEE7FEE7FEE757
:10018000FEE7FEE74504000851010008D2B201E095
:1001900000F8012B491EFBD270470022F6E710B58C
:1001A00013460A4604461946FFF7F0FF204610BDE5
:1001B00030B50B46014600202022012409E021FA37
:1001C00002F59D4205D303FA02F5491B04FA02F534
:1001D0002844151EA2F10102F1DC30BD064C074D8A
:1001E00006E0E06840F0010394E807009847103407
:1001F000AC42F6D3FFF7B0FF081100082811000841
:1002000010B500F027FA00F0D1F800F049FA00F03C
:1002100012F802A000F0B2FA10BD000048656C6C44
:100220006F576F726C640D0A0000000000BFFEE79C
:10023000704700BFFEE700B589B040F2115000F0F2
:1002400083FC0123002202214FF0904000F0A6FB26
:100250000123032200214FF0904000F0C6FB012251
:1002600002214FF0904000F068FB4FF4E06000F096
:100270006BFC4FF0804000F055FE2320ADF80400E9
:100280000020ADF80600ADF808007C2003900020A7
:10029000ADF80A008DF8100001A94FF0804000F081
:1002A000A9FE0020ADF81A00012005900020ADF84D
:1002B0001C000420ADF818008001ADF81E000020DD
:1002C000ADF8200005AA00214FF0804000F0E6FCC8
:1002D000002211464FF0804000F011FE6022002104
:1002E0004FF0804000F0DEFD0121880700F0EBFEBA
:1002F0004FF0804000F078FE09B000BD00BFFEE77F
:100300007047000010B5002807DA0A07140E054AE6
:1003100000F00F031B1FD45403E00A07130E024A18
:10032000135410BD18ED00E000E400E07047000039
:1003300010B540F2165000F007FC02230122002104
:100340000B4800F02BFB40F2115000F0FDFB4FF486
:100350008063012200214FF0904000F01FFB042336
:10036000012200214FF0904000F018FB10BD00006A
:100370000014004810B540F2115000F0E5FB40F2C7
:100380000223002201214FF0904000F007FB40F2D1
:100390000223032200214FF0904000F026FB40F2A0
:1003A00002214FF0904000F0F7FA10BD10B5FFF7B2
:1003B000BFFFFFF7DFFF10BD2DE9F0470746884676
:1003C000DFF870A000BF9AF8000008B900F09EF9AD
:1003D00000BFEFF311810846202181F3118800BF8F
:1003E00000BF07EB47021349183101EBC204E16873
:1003F0004D1CA168A94200D100256169022903D1E1
:1004000000BF2169A942FCD02169A94208D0E26855
:10041000616801EB020989F80080E560012600E0CF
:100420000026C1B281F3118800BF00BF3046BDE88D
:10043000F087000010000020704710B500F068FA47
:1004400010BD000008B57948C06900F00600062814
:1004500071D07648C069C0F3403000286BD0744832
:100460007249486073484860714888607148886084
:100470000846006940F0200008610846006940F025
:100480004000086100BF6948C06800F00100002812
:10049000F9D16648006920F02000644908610846E7
:1004A000006940F0100008610846C06900F00600CD
:1004B00018B9A5206049088008E05C48C06900F0D0
:1004C0000600022802D1BB205B4908805748C0695A
:1004D000000A00F0DF005849891C08805348C069B1
:1004E000C0F30740891C08805048C069000E891C71
:1004F00008804E48006AC0B2891C08804B48006AD8
:10050000C0F30720891C088000BF4848C06800F07D
:1005100001000028F9D14548006920F01000434946
:1005200008610846006920F4007008610846006907
:1005300040F0800008614148006840F470003F4985
:1005400008603F48006840F001003D49086000BF76
:100550003B48006800F002000028F9D000BF38488E
:10056000406840F08000364948600020009002E07A
:100570000098401C009000985028F9D330484068FB
:1005800040F090002E4948600020009002E0009862
:10059000401C009000985028F9D300BF28484068BC
:1005A00020F00300264948600846006825490840B5
:1005B00023490860084640682349084020494860AC
:1005C00008464068214908401D4948600846C06AFD
:1005D0001F4908401A49C8620846006B40F20311DF
:1005E0008843174908630846006B20F4803008638D
:1005F0000846006B20F0004008630846406B20F07E
:10060000010048630E48C030006820F48030C1F813
:10061000C000002088600A49CC31086000F00CFB63
:1006200000214FF0006000F083FA08BD0020024076
:1006300023016745AB89EFCD00F8FF1F88ED00E08F
:1006400000100240FFFFF2FE0C00FF08FFFFC27720
:10065000F0FFFF3F10B500F0F3FA10BD10B5012117
:10066000094800F024FD01280DD108480068401C0D
:10067000064908600846016805A000F07FF80121DE
:10068000014800F011FD10BD0044014004000020AD
:10069000745F636F756E743A25640D0A0000000084
:1006A0001FB540F2116000F04FFA164800F03AFC16
:1006B000684600F014FD42F2CF00ADF800000020C3
:1006C000ADF80200ADF8040042F20F700290002075
:1006D000ADF8060069460B4800F08CFC0121094882
:1006E00000F0E2FC0121074800F0DAFC054800F0C8
:1006F000CFFA044800F078FC02220021152000F017
:10070000B7F91FBD0044014000BFFEE770B5144CAF
:10071000A8212046FFF741FD03202061606111A060
:10072000A0611349E1614FF4806121620021A1625F
:100730006162E1620BA020660E4961661021A1662C
:1007400000212167E1666167002505E0C5F10F0022
:100750000949085C60556D1C102DF7D370BD000071
:10076000100000205465726D696E616C000000001D
:10077000B8000020B8040020F41000080FB4054BA6
:1007800010B503A9044A029800F018F810BC5DF8EF
:1007900014FB0000290900080C00002002E008C832
:1007A000121F08C1002AFAD170477047002001E0EB
:1007B00001C1121F002AFBD1704700002DE9FF4F35
:1007C00089B09B460446002506E025280BD05A46F2
:1007D0000B999047641C6D1C20780028F5D10DB052
:1007E0002846BDE8F08F0027B8460122474900E0BF
:1007F000074314F8013F203B02FA03F00842F7D107
:1008000020782E2819D114F8010F47F004072A2860
:100810000ED06FF02F022078A0F1300109290CD8FA
:1008200008EB880102EB410100EB0108641CF2E7D0
:100830000A98641C50F8048B0A9020780028CED0C7
:10084000642808D0692806D075281ED05A460B990E
:1008500090476D1C58E00A994FF00A0901C90A91A6
:10086000002802DA40422D2102E0390504D52B216F
:100870008DF82010012103E0F90704D02021F7E7CB
:100880008A4608AE0DE00021FAE70A994FF00A09FE
:1008900001C90A91F7E74946FFF78AFC303106F8AB
:1008A000011D0028F7D1ADEB060000F12009780703
:1008B00001D44FF00108C84502DDA8EB090000E0B3
:1008C00000208046002706E008A85A46C05D0B9924
:1008D00090476D1C7F1C5745F6DB04E030205A46DC
:1008E0000B9990476D1CB8F10001A8F10108F5DCE7
:1008F00005E016F8010B5A460B9990476D1CB9F1AB
:100900000001A9F10109F4DC641C65E70928010074
:100910000448006820B103480068401E014908608F
:10092000704700000000002070B504460D46E1B29B
:100930000020FFF741FD204670BDF0B503461C6A5C
:100940005D6A00200DE00126864016403EB187001A
:100950000F26BE40B443860001FA06F63443461C17
:10096000B0B20828EFD3082011E0012686401640D7
:100970005EB1A0F10806B7000F26BE40B543A0F156
:100980000806B60001FA06F63543461CB0B2102838
:10099000EBD31C625D62F0BD81627047F0B5044626
:1009A0000D4616462168E268002019E001278740BD
:1009B0001F409FB14FEA400C032707FA0CF7B943D9
:1009C000470005FA07F739434FEA400C032707FAB7
:1009D0000CF7BA43470006FA07F73A43471CB8B288
:1009E0001028E3D32160E260F0BDF0B504460E4666
:1009F000012E03D167681F43676002E067689F4369
:100A00006760A1684FF6FF77BA4216D1E56B002008
:100A10000EE0012787401F4047B14FEA400C0327F3
:100A200007FA0CF73943012787403D43471CB8B20A
:100A30001028EED3A160E56314E000200FE0012749
:100A400087401F404FB14FEA400C032707FA0CF7CD
:100A5000B943470002FA07F73943471CB8B21028D8
:100A6000EDD3A160F0BDFFF7CBFB00BFFEE70000B8
:100A70002DE9F04103460D46164600240027A04606
:100A80002448006800F4E060B0F5A06F15D006DCE3
:100A9000B0F5407F18D0B0F5806F19D110E0B0F5F7
:100AA000C06F06D0B0F5E06F12D100274FF00408F8
:100AB00015E001274FF0030811E00227B8460EE0C9
:100AC00003274FF001080AE004274FF0000806E072
:100AD0004FF4A06000F022F80227B84600BF00BF24
:100AE000C7F1040005FA00F4C8F104010F20C84062
:100AF0003040044324010848C45403F01F0101207E
:100B000088405911890001F1E021C1F80001BDE8D8
:100B1000F08100000CED00E000E400E00249014338
:100B2000024A1160704700000000FA050CED00E079
:100B3000034A0A400243034B1A60BFF34F8F7047CA
:100B400080FFFF1F08ED00E0064A02EB90110968E4
:100B500000F01F0301229A401143024B03EB901255
:100B60001160704700100240064A02EB90110968BC
:100B700000F01F0301229A409143024B03EB9012B5
:100B80001160704700100240064A02EB901109689C
:100B900000F01F0301229A401143024B03EB901215
:100BA0001160704700100240204840681F494860AB
:100BB0000846406840F4005048600846406840F4E9
:100BC00080604860084640681949084017494860F5
:100BD0000846C06A174908401449C8620846406878
:100BE00040F0016048600846C06AC8620846006874
:100BF00040F08070086000BF0C48006800F0007092
:100C00000028F9D00948406820F0030007494860EF
:100C10000846406840F00200486000BF0348406852
:100C200000F008000028F9D07047000000100240D2
:100C3000FFFFC0F7F0FFFF3F10B5FFF7B5FF10BD96
:100C400010B5124800684FF47A71B0FBF1F4601EE1
:100C5000B0F1807F01D301200FE0601E4FF0E02152
:100C600048610F214FF0FF30FFF74CFB00204FF0A1
:100C7000E021886107200861002008B100BFFEE77D
:100C80000021481EFFF73EFB10BD000008000020B9
:100C9000016841F0800101607047000010B531B17A
:100CA000012945D002297DD003297CD1CBE0036AFC
:100CB00023F001030362836923F003038361036A62
:100CC000146823430362036A23F002030362036A86
:100CD000D488234303626F4B984208D06E4B9842EE
:100CE00005D06E4B984202D06D4B98421FD1036ADB
:100CF00023F004030362036A948823430362036AB4
:100D000023F008030362036A1489234303624368E0
:100D100023F48073436043685489234343604368EA
:100D200023F4007343604368948923434360AEE037
:100D3000036A23F010030362836923F44073836121
:100D4000036A146843EA04130362036A23F020036E
:100D50000362036AD48843EA041303624D4B98424A
:100D600026D1036A23F040030362036A948843EAAE
:100D700004130362036A23F080030362036A148985
:100D800043EA04130362436823F4806343604368C7
:100D9000548943EA84034360436823F40063436057
:100DA000436801E011E071E0948943EA8403436001
:100DB000394B984208D1436823F480634360436809
:100DC000548943EA8403436061E0036A23F4807337
:100DD0000362C36923F00303C361036A146843EA2F
:100DE00004230362036A23F400730362036AD48852
:100DF00043EA04230362274B984223D1036A23F476
:100E000080630362036A948843EA04230362036AEB
:100E100023F400630362036A148943EA0423036230
:100E2000436823F4805343604368548943EA0413BE
:100E30004360436823F4005343604368948943EA62
:100E40000413436023E0036A23F480530362C369FD
:100E500023F44073C361036A146843EA04330362F2
:100E6000036A23F400530362036AD48843EA043319
:100E70000362084B984208D1436823F480434360DF
:100E80004368548943EA8413436000E000BF00BF15
:100E900010BD0000002C0140004001400044014012
:100EA0000048014031B101290CD0022913D0032997
:100EB00022D118E0836923F07003836183691343AF
:100EC00083611AE0836923F4E0438361836943EA21
:100ED0000223836111E0C36923F07003C361C36916
:100EE0001343C36109E0C36923F4E043C361C369E9
:100EF00043EA0223C36100E000BF00BF704731B185
:100F0000012906D0022906D0032908D105E0426351
:100F100006E0826304E0C26302E0026400E000BF16
:100F200000BF704710B504462D49601A8C4214D09A
:100F300009DCB4F1804F19D02A482044F8B1B0F54B
:100F4000E05F49D124E0B0F5A05F2AD0B0F5C05FE2
:100F500030D0B0F5E05F3FD135E040F20B30FFF725
:100F600013FE40F20B30FFF7FFFD36E04FF48060D8
:100F7000FFF70AFE4FF48060FFF7F6FD2DE040F228
:100F80000140FFF701FE40F20140FFF7EDFD24E0D4
:100F90004FF48160FFF7F8FD4FF48160FFF7E4FD47
:100FA0001BE04FF44470FFF7EFFD4FF44470FFF780
:100FB000DBFD12E040F21130FFF7E6FD40F21130A8
:100FC000FFF7D2FD09E040F21230FFF7DDFD40F2FD
:100FD0001230FFF7C9FD00E000BF00BF10BD0000E8
:100FE000002C014000FCFFBF016841F001010160DD
:100FF000704700000A888262234A904205D0B0F10F
:10100000804F02D0214A90420BD1026822F0700238
:10101000026002684B881A43026002688B881A4398
:1010200002608A68C262184A904211D0B0F1804FC3
:101030000ED0164A90420BD0154A904208D0154A5D
:10104000904205D0144A904202D0144A904207D1EF
:10105000026822F4407202600268CB881A43026080
:10106000094A904208D00B4A904205D00A4A904261
:1010700002D00A4A904201D10A7B0263426942F0DF
:101080000102426170470000002C01400004004052
:101090000020004000400140004401400048014061
:1010A000C2680A43C2607047CA4302617047024681
:1010B000D06800EA01031069084010B10BB10120AB
:1010C00070470020FCE7012904D1426C42F4004241
:1010D000426403E0426C22F4004242647047002103
:1010E0000180418081804FF6FF7181600021C180C5
:1010F0000173704700000000000054545220524514
:101100004747455300000000281100080000002058
:10111000100000009C070008381100081000002093
:10112000B8080000AC070008000000000000000044
:0811300000BD010500000000F4
:04000005080001519D
:00000001FF
